:100000000040002029050000690500006B05000084
:1000100000000000000000000000000000000000E0
:100020000000000000000000000000006D0500005E
:1000300000000000000000006F05000071050000D6
:1000400073050000730500007305000073050000D0
:100050007305000000000000730500007305000038
:1000600073050000730500007305000073050000B0
:1000700073050000730500007305000073050000A0
:100080007305000073050000730500007305000090
:100090007305000073050000730500007305000080
:1000A0007305000073050000000000000000000060
:1000B0000000000000000000000000000000000040
:1000C00010B5064C2378002B07D1054B002B02D02E
:1000D000044800E000BF0123237010BDB8090020D0
:1000E00000000000DC340000044B10B5002B03D0EE
:1000F0000349044800E000BF10BDC04600000000F6
:10010000BC090020DC340000144B002B00D1124B42
:100110009D46402292029A1A924600218B460F4633
:100120001148124A121A00F08DFA0D4B002B00D024
:1001300098470C4B002B00D098470020002104006A
:100140000D000B4800F016FA00F046FA20002900D6
:1001500000F030F800F016FA00000800004000201F
:100160000000000000000000B8090020100A002074
:10017000A505000080B586B000AFF860B9607A6070
:10018000BB687B6100233B610AE07B691B78180038
:1001900000F0D0F87B6901337B613B6901333B613F
:1001A0003B697A689A42F0D87B681800BD4606B071
:1001B00080BD000080B584B000AF00F07FF8A023C0
:1001C000DB053C4A00219950A023DA05ED23DB0032
:1001D0000021D15000237B600023FB600023BB6023
:1001E0002AE0A023DA05A223DB00D25880239B0259
:1001F00013400CD1FB680133FB60C046A023DA0535
:10020000A223DB00D25880239B021340F6D0A02308
:10021000DA05A223DB00D2588023DB0413400BD184
:1002200001237B60C046A023DA05A223DB00D2585D
:100230008023DB041340F6D07B68002BD1D0BB6851
:100240000133BB602AE0A023DA05A223DB00D258E9
:100250008023DB0413400CD1BB680133BB60C04674
:10026000A023DA05A223DB00D2588023DB0413404D
:10027000F6D0A023DA05A223DB00D25880239B020C
:1002800013400BD100237B60C046A023DA05A223D4
:10029000DB00D25880239B021340F6D07B68012BF1
:1002A000D1D0FB68BA685343BA68F968024800F0D5
:1002B000B7F991E7440700000032000080B500AFB5
:1002C000A023DA05EC23DB000121D150A023DB05BC
:1002D000124A002199501249A123DB000122524207
:1002E000CA500F49A223DB0001225242CA500C4AD5
:1002F0000C4B1821D1500A4A0B4B1921D150084AF6
:100300000A4B0B49D150064AA023DB000421D150EF
:10031000034B01221A60C046BD4680BD6407000041
:10032000002000400C05000014050000240500001A
:100330000050270080B582B000AF0200FB1D1A708C
:100340000D4B01229A600C49FB1D1B780B4A8B5008
:10035000C046094A8E235B00D358002BF9D0064AC9
:100360008E235B000021D150034B0122DA60C0468E
:10037000BD4602B080BDC046002000401C05000004
:1003800080B500AF00F036F8031E06D0134B144AB8
:100390001A60144B802212021A6000F06BF8031EE0
:1003A00005D08023DA05C123DB000121D15000F004
:1003B00087F8031E0ED00C4B1B68012B07D00A4B8D
:1003C0000A4A1A60C046084B1B68012BFBD1084B38
:1003D000C0221A60C046BD4680BDC046040500402C
:1003E000DFFF07C0186C004000EC0640759300006A
:1003F00014EC064080B500AF1A4B1B68FF22134077
:10040000012B2AD1184B1B680F22134025D1174B03
:100410001B68F022134006D1154B1B68F0221340D5
:1004200001D101231AE0114B1B68F0221340102B5D
:1004300006D10F4B1B68F022134001D101230DE0C0
:100440000A4B1B68F0221340302B06D1084B1B6867
:10045000F022134001D1012300E000231800BD4623
:1004600080BDC046E00F00F0E40F00F0E80F00F0A0
:10047000EC0F00F080B500AF0D4B1B68FF2213405E
:10048000012B11D10B4B1B680F2213400CD10A4BCF
:100490001B68F0221340402B06D1084B1B68F0224A
:1004A000134001D1012300E000231800BD4680BDA8
:1004B000E00F00F0E40F00F0E80F00F0EC0F00F0A8
:1004C00080B500AF144B1B68FF221340012B1ED1D7
:1004D000124B1B680F22134019D1114B1B68F022DD
:1004E0001340A02B06D10F4B1B68F022134001D103
:1004F00001230DE00A4B1B68F0221340D02B06D1DC
:10050000084B1B68F022134001D1012300E00023B7
:100510001800BD4680BDC046E00F00F0E40F00F0BB
:10052000E80F00F0EC0F00F003210A4802680A43CC
:100530000260094802680A4302600849084A094BF8
:100540009B1A03DD043BC858D050FBDCFFF718FFB3
:10055000FFF7DAFD2405004054050040E8340000B0
:1005600000000020B8090020FEE7FEE7FEE7FEE7F6
:10057000FEE7FEE710B5010000230022002000F096
:100580007BFF10BD10B50021040000F0EBFF044B11
:100590001868C36B002B00D09847200002F022FEA1
:1005A0001032000070B5094B094CE41AA41009D0B0
:1005B000084AA518AD00ED182B68013C9847043D8A
:1005C000002CF9D102F016FE70BDC046B40900201F
:1005D000B8090020FFFFFF3F70B50D4E0D4DAD1B5C
:1005E000AD1006D00024A300F35801349847A5426B
:1005F000F9D102F0F9FD084E084DAD1BAD1006D043
:100600000024A300F35801349847A542F9D170BDE6
:10061000AC090020AC090020AC090020B40900207E
:100620000FB400B5064983B004AB086804CB8168F9
:10063000019300F095F803B008BC04B01847C04619
:1006400000000020F0B5830746D0541E002A42D097
:10065000CEB20200032502E01A00013C3BD3531C3A
:1006600016702B42F8D1032C2DD9FF220A40150217
:1006700015432A0415430F2C16D92700103F3F09B4
:100680003E01B4461E001A001036664415605560DF
:100690009560D5601032B242F8D10F2201373F0188
:1006A000DB191440032C0ED9261FB608B700BC4630
:1006B0001A001F1D674420C2BA42FCD10322013632
:1006C000B6009B191440002C05D0C9B21C19197032
:1006D00001339C42FBD1F0BD14000300C3E7C046C8
:1006E000F8B54E464546DE4657464B6EE0B5804669
:1006F0000E0091469B0430D513689A469368002BF0
:1007000029D05246146852689346970818D000259D
:1007100003E001350434AF4210D032002168404676
:1007200001F030F9431CF4D14A4600239360536032
:100730003CBC90469946A246AB46F8BD4B469B68EA
:100740005A4603218A439B1A4A46936008229446DC
:10075000E244002BD5D10020E6E701F05DFAE3E7A3
:10076000F0B54546DE4657464E46E0B5AFB00A9076
:10077000049190461C000B93002804D0836B0193D6
:10078000002B00D1AAE38022049892010C23C15EC1
:100790008BB2134209D103000A431900406E9A81BB
:1007A000B84B019003404B6693B21A0700D4F0E1B6
:1007B000049A12690192002A00D1EAE11A22134038
:1007C0000A2B00D1F3E11EAB9A4611930023564643
:1007D0004446139312930D9307932378002B00D173
:1007E000B0E22500252B02D122E0252B03D00135D4
:1007F0002B78002BF9D12F1B16D0139B3460FA18DD
:10080000129B776001930133139212930836072BE2
:1008100005DD002A01D000F0A2FC56461292079B8B
:100820009C46BC44634607932B78002B00D189E299
:1008300000230EAAD37100229446013A01920022AD
:100840000692203290462032914640326C1C6B78E2
:100850000020002593461A00203A0134582A00D976
:10086000C7E1894992008A58974610231D43AB0679
:1008700000D579E20B9A08CA0B92EA0602D46A06FE
:1008800000D59BB208930023099300230EA9CB71D6
:10089000019B012201334ED1002398460295012A83
:1008A00000D1CFE2022A01D100F02AFC0898099970
:1008B0000723A1469C46B346544600E03C004E0741
:1008C000C2086346CD081643290035000340671E61
:1008D00030333B7030000D43F0D1089009910299FC
:1008E00022005E464C46C90701D400F022FC302BA2
:1008F00001D100F01EFC3023971E3B705346DB1BDA
:10090000059339E010231D43AB0600D4C1E1072253
:100910000B9B07339343013294469C4462460B92EF
:100920001A685B6808920993002200230EA9CB7114
:10093000019B0133B0D000239846802329009943BE
:1009400002910898099903000B43A8D1019B002B41
:1009500001D000F03EFC002A01D000F0FBFB01209A
:1009600028400590574607D02723302114AAD15498
:100970000EAB3F279C466744019B059A9B469342DA
:1009800000DA934643465A1E93419B440223029A3F
:100990001A40914602D002239C46E3448423029AE3
:1009A00013981A40129B15000C925A1C9446002D65
:1009B00035D15946069D6D1A002D30DD102D01DC14
:1009C00000F065FC314AA0466146140006E09A1C1E
:1009D0000B000836103D102D11DD591C102210306F
:1009E00034607260139012910729F0DD002800D066
:1009F00035E3103D002301225646102DEDDC230087
:100A000094464446984643463360634640197560B1
:100A100013901293072B00DD48E308365A1C31006F
:100A2000083103910EA9CD79002D00D193E20B007E
:100A30000733336001230130736013901292072A49
:100A400000DC46E3002800D077E24B46002B00D0C4
:100A500046E320AA0392564601220C9D802D00D128
:100A600093E2019D05996D1A002D3DDD102D01DCED
:100A700000F0E3FB064A9046102291464246A0460B
:100A800014000DE0FFDFFFFF14320000A833000068
:100A9000B83300009A1C0B000836103D102D11DDF4
:100AA0004A461030591C3460726013901291072925
:100AB000F0DD002800D033E2103D0122002356462D
:100AC000102DEDDC230044469846330008334146A0
:100AD000401922C613901292072A00DD2EE3190056
:100AE0001E00083101320391059B37609C4660442B
:100AF000736013901292072A00DC8FE2002800D066
:100B000081E2029B12905B0739D55A46069B9D1ADB
:100B1000002D34DD53460393129A102D00DCBAE306
:100B2000B54B102603991F00A04605E0941C1A003F
:100B30000831103D102D10DD1030531C0F604E6039
:100B400013901293072BF1DD002800D094E2103DA2
:100B5000012400225146102DEEDC3B0027004446C4
:100B6000984603914346039A4019136055601390C9
:100B70001297072F00DC5AE2002800D037E3069BCB
:100B80005B4500DA5B46079A94469C4463460793AC
:100B900060E2049D0A98290000F004FC002800D0BF
:100BA00095E31A22AB8913400A2B00D00BE6049977
:100BB0000E228B5E002B00DA05E6230042460A98DF
:100BC00000F0B6FB0790C7E0303B00211A008B0015
:100BD0005B185B00D1182378671C1A00303A3C0080
:100BE000092AF4D906913C001A00203A582A00D864
:100BF00037E6002800D097E3002B00D1A2E014AF25
:100C00003B7000230EAAD37101339B4605933AE152
:100C10005B461D4323781EE62378611C2A2B00D1F6
:100C200059E31A000024303A01940F00092ADAD857
:100C30000024A3001B195B009C180B784F1C1A00A2
:100C4000303A3900092AF4D901943C00CCE72378E2
:100C500004221543FFE50B9A2378116804320691AC
:100C60000B92002900DBF6E54A420692F0E70123E9
:100C70001D432378EFE52B22237801209446EAE5F3
:100C800062462378002A00D0E5E520320120944610
:100C9000E1E50B9A08CA0B92EA0602D46A0600D56F
:100CA0009BB208930023002209933EE623786C2B25
:100CB00000D1CAE210221543CDE50B9B1A1D1F6817
:100CC000002391460EAAD371002F00D1C3E2019AEE
:100CD000531C00D195E20021380001F087FC002868
:100CE00000D1E2E2C31B05930EABDB790295984677
:100CF0004B460B93002301933EE643461D43237866
:100D0000A9E50B993D4A0B68089300230993023328
:100D10001D4310AB1A800B1D0B93394B02220D9310
:100D200003E6002800D0E8E20B9A08CA0B92AA0654
:100D300000D46BE2079A1A60D2175A602378002B0E
:100D400000D04EE5139B0193002B00D0B9E2049B29
:100D50009B895B0600D5BAE207982FB03CBC904651
:100D60009946A246AB46F0BD07220B9B073393433F
:100D7000013294469C4462460B921A685B68089262
:100D800009930122D1E5002800D0B2E21D4A0D925C
:100D9000AA0623D507210B9A07328A4301318C46D4
:100DA000944461460B91116852680891099202229D
:100DB000E90700D4B9E50898099907000F4300D165
:100DC000B3E5302010A908704B701543ADE500283D
:100DD00000D09DE20A4A0D92AA06DBD40B9904C901
:100DE0000B91E90600D5C5E1690600D4C2E192B2D3
:100DF000089200220992DAE7A83300003078000058
:100E00008C33000078330000002800D084E2AB0669
:100E100048D507220B9B07339343013294469C44E9
:100E200062460B921A685B6808920993099B002B33
:100E300048DB0EABDB799846019B0122013300D0E1
:100E40007BE50295089A099B002B4AD1092A48D8CC
:100E50002722089B14A930338B54012305930EAB32
:100E60003F279C46674487E50B9A14AF13680EA989
:100E700001936B461B793B700023CB71131D0B93C1
:100E800001239B4605930023029501937EE54B4683
:100E90001D432378DFE4002800D041E210231D43E6
:100EA000AB06B6D40B9A08CA0B92EA0600D565E1E8
:100EB0006A0600D462E11BB20893DB170993099B11
:100EC000002BB6DA08980999002342428B41089218
:100ED00009932D230EAAD3719846ADE700F0FCFCD0
:100EE00051E45746A146089C099D200029000A228A
:100EF000002302F06DF8013F30323A7000232000E9
:100F000029000A2202F064F8030004000D000B43DC
:100F1000EBD15346DB1B0894099505934C462BE512
:100F200011AA04990A98FFF7DBFB002800D00EE70E
:100F3000129B13985A1C5646AFE511AA04990A98B9
:100F4000FFF7CEFB002800D001E75646129B20A9F0
:100F500013985A1C03914946002900D17DE510AB36
:100F6000336002230230736013901292072A00DC70
:100F7000BFE0002800D005E10C9D20AB03930122C7
:100F800000235646802D00D06BE55D4606994D1B2B
:100F9000002D00DC65E5102D00DC80E1D94A90468B
:100FA000102291464246A046140005E0991C130009
:100FB0000836103D102D10DD4A46103072605A1C64
:100FC000346013901292072AF0DD002861D1103DA1
:100FD000012100235646102DEEDC2300444698469E
:100FE000082399468C46B144434628C663464019B7
:100FF00013901293072B00DDD3E0494608315A1CA9
:1010000003914E462DE511AA04990A98FFF768FB53
:10101000002800D09BE6534613980393029B5B077E
:1010200005D55A46069B9D1A002D00DD74E5069BEA
:101030005B4500DA5B46079A94469C4463460793F7
:10104000002807D011AA04990A98FFF749FB002845
:1010500000D07CE6002356461293FFF7BEFB11AA90
:1010600004990A98FFF73CFB002800D06FE6129B1A
:1010700013985A1C5646ADE411AA04990A98FFF732
:101080002FFB002800D062E6129A1398541C514698
:101090004FE511AA04990A98FFF722FB002800D017
:1010A00055E6129B1398591C564682E7002800D03B
:1010B000B5E00EABDB79002B00D18FE053460EAAD2
:1010C00007321A600123524601205360012220ABEF
:1010D0000393039913000E000831013203913AE79C
:1010E000524610AB1360022302205360012220AB52
:1010F0000393039913000E00083101320391ACE40D
:101100005746089A099B0F20B446A1460D9C010042
:101110001140615C1E071509013F2E433970190902
:101120000B00310032001943F1D166464C4608925B
:1011300009935346DB1B0593FFF71EFC002838D1AB
:10114000534605981F6058600123129320AB1390FB
:10115000039363E7002357460593FFF70DFC11AA9D
:1011600004990A98FFF7BCFA002800D0EFE556462C
:10117000FFF755FB08920022099218E60893DB1747
:10118000099353E611AA04990A98FFF7A9FA0028CF
:1011900000D0DCE5129B20A913985A1C03915646F7
:1011A0005BE4002863D120AB039301220023564661
:1011B00057E411AA04990A98FFF792FA002800D080
:1011C000C5E5129B139801935A1C20AB0393564616
:1011D0008AE4012A01D0FFF765FB39E64B46002B74
:1011E00000D07DE720AA03925646012239E411AAD5
:1011F00004990A98FFF774FA002800D0A7E513981D
:1012000015E7380001F000FD05906DE5EA0618D4F9
:101210006A0616D56A46928B1A80FFF7DEFA11AA83
:1012200004990A98FFF75CFA002800D08FE5129B1A
:1012300013985A1C5646FFF7F2FB3249039B884627
:1012400045E4079A1A60FFF7C8FA434601341D4384
:101250002378FFF700FB019B0593062B01D906239A
:101260000593059B284F9B464B460B930BE611AA13
:1012700004990A98FFF734FA002800D067E5129B1A
:1012800020A913985A1C03915646FFF7EAFB1F4BFF
:101290009846FFF7B8FB1D4B571C984662E4039B2A
:1012A00094469946174B98469EE60EABDB7902951D
:1012B00098464B460B93019B059300230193FFF740
:1012C0005BFB11AA04990A98FFF70AFA3FE501238C
:1012D0005B42079340E50B9B1A1D1B680193002B93
:1012E00002DA01235B42019363780B920C00FFF753
:1012F000B2FA61460EAAD17148E562460EABDA71C8
:1013000012E5C046B8330000A0330000A833000047
:1013100061460EAAD1715DE562460EABDA7176E5E3
:1013200062460EABDA71B9E561460EAAD17163E48B
:1013300070B5060002201A4CA5440C00898981432F
:1013400068468181616E1991E189C181E16930004E
:101350000791616A09911AA9009104918021C9003D
:1013600002910591002106916946FFF7F9F9051EE2
:101370000CDA6B469B895B0603D54022A389134395
:10138000A38128008D23DB009D4470BD6946300099
:1013900000F010FA0028ECD001256D42E9E7C046C4
:1013A00098FBFFFF334B70B5050018680C00002850
:1013B00002D0836B002B3DD00C23E25E93B2190761
:1013C0000DD52169002915D0DA0722D50023A360A5
:1013D000636900205B42A361002922D070BDD90659
:1013E00040D55B0729D4216908231343A3819BB20D
:1013F0000029E9D1A0228020920080001A40824278
:10140000E2D02100280000F0E9FDA3892169DA0774
:10141000DCD400229B0700D46269A260002000296E
:10142000DCD10C22A35E1A06D8D540221343A38137
:101430000138D3E700F050FABEE7216B00290AD04B
:1014400023004033994204D0280000F0FBFA0C231B
:10145000E25E0023236324239A430023216963600F
:101460002160C1E709232B60402301201A43A28198
:101470004042B3E700000020F8B5DE469B46314B02
:1014800045461C68A4234E4657465B00E0B5050060
:10149000E0580E00904600284BD043681F2B0DDC0F
:1014A0005C1C002D21D102339B0044601E500020A3
:1014B0003CBC90469946A246AB46F8BD224B002B59
:1014C0003CD0C820400000E000BF002836D0A42255
:1014D00000235200A15843600160A0504032835065
:1014E000043283500124002DDDD09A0091468144BE
:1014F000424688214F467A50C4225200904680448A
:1015000042468739994012688A460A4394464246C1
:1015100061461160842249465F4652008F50022D79
:10152000C1D1020055468D32FF3211680D4315605E
:10153000B9E720004D30FF30E050AEE701204042D7
:10154000B6E7C0461032000000000000034B10B5A3
:10155000002B02D00248FFF70DF810BD000000007C
:10156000A5050000F0B55746DE464E464546E0B5B7
:101570000F003A4B87B01B68059003934933FF3344
:101580000493A422039B52009E58002E4BD0049B30
:101590009A4601239B467468651E32D4C4235B00BF
:1015A000994604339C46B44463460134A40034197C
:1015B000B144019302E0043C013D22D3002F04D04A
:1015C000631CFF331B68BB42F5D173682268013B83
:1015D000AB422FD000232360002AECD07368494629
:1015E00098465B46AB400968194225D1904773681D
:1015F0004345C6D153461B68B342C2D1043C013DAA
:10160000DCD2174B002B0ED072683368002A1ED133
:10161000002B1CD052463000136000E000BF534640
:101620001E68002EB7D107B03CBC90469946A24632
:10163000AB46F0BD7560CFE72100019880310068AE
:1016400009680290184205D105989047CFE7B24645
:101650001E00E6E708009047C9E7C04610320000C8
:1016600000000000F0B5C64600B50C23CA5E8046F7
:1016700093B20C00190746D480231B011343626800
:10168000A381002A5FDDA56A002D5FD04246414656
:10169000166800229BB20A60E169DA0400D57EE098
:1016A000012300224046A847431C55D0A389A56AC0
:1016B000E1695B0706D56368C01A236B002B01D074
:1016C000E36BC01A002302004046A847431C4FD0DA
:1016D000A389364A13400022626022691BB2A381AB
:1016E0002260DB0459D44346216B1E6000292DD0B3
:1016F00023004033994202D0404600F0A3F9002372
:101700000020236323E02669002E1FD02268266074
:10171000951B00229B071DD0A260002D04DC15E064
:1017200036182D1A002D11DD2B003200E1694046DC
:10173000676AB8470028F3DCA389402201201343DD
:10174000A381404203E0E26B002A9CDC002004BC41
:101750009046F0BD6269DFE743461B68002BA5D0C9
:101760001D2B01D0162B1CD1434600201E60EEE736
:1017700043461D680C22A35E1D2DDED80C490122B4
:10178000E9408A43D9D10949626022690B40A381AB
:101790002260DB04A7D5002DA5D12065A3E7206D2D
:1017A00087E74022A3891343A381D0E7FFF7FFFF18
:1017B0000100402070B504000D00002802D0836BAA
:1017C000002B09D00C22AB5E0020002B03D0290097
:1017D0002000FFF747FF70BD00F07EF8F2E7C0463B
:1017E00010B5024900F096FB10BDC046F52D000073
:1017F000F0B5D6464F464646304BC0B5C363B82316
:10180000002403229B00C45004334568C2500833AF
:10181000C218043BC2500600042328006C662C60EA
:101820006C60AC60EB602C616C61AC6108220021E3
:101830005C30FEF707FF224B224F9A462B62224B69
:10184000EF6299466B62214BED61AB62B5689846D9
:1018500028001F4B6C662C606C60AC60EB602C61E8
:101860006C61AC61082200215C30FEF7EBFE534650
:101870002B624B466B624346EF62AB62ED61F568EB
:10188000144B2800EB606C662C606C60AC602C61C3
:101890006C61AC61082200215C30FEF7D3FE534638
:1018A0002B624B466B624346AB620123EF62ED61F4
:1018B000B3631CBC90469946A246F0BDE1170000F8
:1018C0006D2B0000FD2B0000952B0000D12B00009C
:1018D0000900010012000200836B10B5002B01D13A
:1018E000FFF786FF10BDC0467047C0467047C04630
:1018F000F0B5CE46474680B583B081468846140091
:1019000000F02EFB012803D14346013BFE2B2ED9CC
:10191000230001AF5C3342463900484601F00AFA21
:101920000600431C29D000281FD03978002507E085
:1019300023685A1C226019700135B54215D2795DB1
:10194000A368013BA360002BF2DAA269934201DB9A
:101950000A29EDD12200484601F088F9431CEBD159
:1019600003B00CBC90469946F0BD4046F8E74346AC
:1019700001AFD9B239700126D8E74022A3891343B9
:10198000A381EDE710B50C23D45E80239B011C429C
:1019900004D11C439481546E23435366FFF7A8FF80
:1019A00010BDC046F8B50C00060000F0F1FE204F57
:1019B000BB685D6803239D431E4B2C1B9C466444FF
:1019C000240B1D4B013C24039C4207DD0021300009
:1019D00001F0BAF8BB685B19984204D0300000F0FF
:1019E000D9FE0020F8BD6142300001F0ADF8431C83
:1019F0000DD00122BB682D1B15435D600F4B3000DD
:101A00001A68141B1C6000F0C5FE0120EAE70021E3
:101A1000300001F099F8BA68831A0F2BDEDD08490F
:101A20000968401A0549086001210B435360D5E756
:101A30009C050020EF0F0000FF0F0000D4090020DC
:101A4000A4090020F8B5CE464746050080B50C1E17
:101A500055D000F09DFE210008394F680124380060
:101A60000323A0430A1856689E43B146644EB368E8
:101A7000934229D04B465360D3189C463C4242D1F6
:101A80000F68C91B8B68C019984663465F680823B6
:101A90009C46B4442740E0456AD04346CC68DC60AD
:101AA000A360002F32D1012448440443A046936828
:101AB000544C0F18A34200D17FE0D268DA609360E3
:101AC00043464B60386025E003004B443C4206D15E
:101AD0000A68891A88689B18CA68C26090600122E7
:101AE0001A434A60484AB16012689A4204D8474B88
:101AF00028001968FFF756FF280000F04BFE0CBCC9
:101B000090469946F8BD5F682740CCD00123034337
:101B10004B6008503E4B98421AD9430A042B33D8E5
:101B20008209140039323834D200B218083A936866
:101B300003279A4239D05C68BC43844233D99B68FE
:101B40009A42F8D1D368CB608A609960D160D3E7BC
:101B5000C008FF3B8210FF3B93407268C0001343F4
:101B600073608619B368CE608B60B160D960C3E7DB
:101B7000002F41D1030090684B44D2681C43C260DF
:101B800090604C60CB50B7E7142B07D9542B1CD86E
:101B9000020B14006F326E34D200C6E71C005C33B7
:101BA0005B34DA00C1E71A00CCE70123A410A3409C
:101BB0007068034373601300C5E7D9609960CB6018
:101BC0008B6043464B60386096E7AA2252009342EE
:101BD00005D8C20B140078327734D200A5E70D4A3D
:101BE000934205D8820C14007D327C34D2009CE7ED
:101BF000FE227E24920098E704434C6010607BE74D
:101C00009C050020A4050020A8090020040A00204B
:101C1000FF01000054050000F0B54546DE4657467A
:101C20004E46E0B5936883B000900D009046002BBF
:101C30002DD08B891A0732D50A69002A2FD0424647
:101C400016689A0737D56B6A00279A46AD4B002471
:101C50009946E969002C16D023004C4500D9A94BC0
:101C60003A000098D047002800DC8FE043469B688C
:101C70003F18241A181A4346986008D06B6AE9691D
:101C80009A46002CE8D1376874680836E2E70020ED
:101C900003B03CBC90469946A246AB46F0BD290035
:101CA0000098FFF77FFB002800D028E14246AB896F
:101CB00016689A07C7D4DA0770D4002291468022AA
:101CC000920000279346AC682868002F53D05A46EC
:101CD000134200D1A8E0A246BC4200D9D7E090222E
:101CE000D20013422ED02969441AA446686901948F
:101CF00042001218D00F8218781C5210604492468D
:101D0000904201D9824602005B0500D4D0E0110068
:101D1000009800F0ABF9041E00D1EAE0019A2969AD
:101D200000F0A4FCAB89784A134080221343AB81B6
:101D30005246019B2C61E018BA463C00D31A286039
:101D40006A61AB605246494600F0D4FCAB681C1B8C
:101D5000AC603C0000272B6853442B6043469B68D3
:101D6000A1441C1B43469C6000D190E7AC682868E6
:101D7000AB89002FABD13268776891460836A4E76B
:101D800029000098FFF716FD00282DD00C22AB5E2D
:101D9000402201201343AB81404279E7002399465A
:101DA0009A46330000204E460027994625E0002839
:101DB0002FD0B346BE4200D9BB4628682A696B695A
:101DC000904203D9AA689C18A34563DC5B4500DDFB
:101DD00082E06C6A5246E9690098A047041ED5DD8E
:101DE000361B0120002ECBD043469B68A2443F1BEC
:101DF0001C1B43469C6000D149E7002FD7D14B46BE
:101E00001B689A464B465F6808239C46E144002FB6
:101E1000F5D03A000A21504600F0E8FB002859D0DE
:101E200053460130C61AC4E72B69834217D36B6946
:101E30009A46BB4213D8354B38009F4200D93448EC
:101E4000514601F06FF853464A464343E96900980A
:101E50006C6AA047002899DD04003F1B7EE7BC4266
:101E600000D93C002200494600F044FCAB682A68D7
:101E70001B1B1219AB602A60002BEED129000098C1
:101E8000FFF798FC002800D080E73F1B66E73C0086
:101E9000BA4657E75146220000F02CFC2B68290077
:101EA0001B192B600098FFF785FC002898D06DE780
:101EB000009800F071FC041E00D039E7009C2969ED
:101EC0002000FFF7BFFD8022AB899343743A1BB219
:101ED00022605DE77E1C6CE75A46514600F00AFC22
:101EE0005A46AB685C469B1AAB602B685B442B6020
:101EF00076E70C23009A13600C22AB5E48E70120C2
:101F00004042C5E600FCFF7F7FFBFFFFFEFFFF7F37
:101F1000FFFFFF7FF8B54746CE4680B5B82780461D
:101F2000BF00474489460026002F14D07B68BC6858
:101F30005D1E0DD4A389012B07D90E22A35E0133A8
:101F400003D021004046C84706436834013DF1D222
:101F50003F68002FEAD130000CBC90469946F8BD8E
:101F6000044B1B685B6B002B00D1034B9422520087
:101F7000985C7047000000203004002070B50C0011
:101F80001E000E23C95E96B0150000290EDA00234C
:101F90003360A3891B0605D480230020DB002B605F
:101FA00016B070BD402300202B60F9E76A4600F0B0
:101FB0006BFF0028EBDBF022019B12021340064A64
:101FC0008020944663445A42534133608023DB00AF
:101FD0002B600001E4E7C04600E0FFFF70B58B898D
:101FE00082B006000C009B0707D523004333236013
:101FF00023610123636102B070BD01AB6A46FFF744
:10200000BDFF00990500300000F030F800281ED018
:102010008022154BF363A38920601343009A1BB2FF
:102020006261019AA3812061002A02D12B43A3811E
:10203000E1E70E23E15E300000F03AFF002810D007
:102040000322A3899343012213431BB2EEE70C2220
:10205000A35E9A05CFD40322934302221343A381A4
:10206000C3E70C22A35EE1E7E1170000F0B5574695
:102070004546DE464E46E0B50D000B3583B0070001
:10208000162D28D8102900D9C1E000F081FB1025B9
:1020900018230220CC4EF3181A005C68083A9442C8
:1020A00000D15BE1032362689A431300E268A168F0
:1020B000CA6091600122E318596838000A435A60E7
:1020C00000F068FB2000083003B03CBC9046994605
:1020D000A246AB46F0BD07239D4300D597E0A94239
:1020E00000D994E000F054FBF823FF339D4200D860
:1020F00059E1680A00D18EE0042800D934E1382380
:102100009846A80980443930C100AF4E711808398B
:10211000CC68A14218D0032362689A431300521B73
:102120000F2A00DD18E1002AC0DA03239C4608E0EC
:102130006246636893435A1B0F2A00DD0CE1002AB4
:10214000B4DAE468A142F3D132003469083294422F
:1021500067D00323616899438A460B00491B0F2906
:1021600000DD0DE1726132610029A3DA974A9245E0
:1021700000D94AE1DB08FF3A9910FF3A8A40DB00B8
:1021800071689B190A4399687260E360A1609C6062
:10219000CC60012183109940914248D80A4205D170
:1021A00003239843490004300A42FBD00323984696
:1021B000C3009946B144CC4682466346DC68A445D8
:1021C00007D1F4E0002A00DB10E1E468A44500D167
:1021D000EDE04246636893435A1B0F2AF2DD01206B
:1021E0008046611905436560A068E5680836C560EA
:1021F000A8604046F160B16010434860CE608E60D8
:102200003800E25000F0C6FA200008305CE70C23EA
:1022100000203B6058E780213F23890040209846FA
:1022200073E701217268831099409142B6D9032364
:10223000B46862689A439046AA4202D3531B0F2B9C
:102240007CDC634A634B93461B681268EB180132CF
:1022500000D13BE1604A944663441B0B1B0301938E
:102260000199380000F070FC03008146013300D171
:10227000F9E04346E318834200D9F2E0574A019956
:10228000924612689446524661441160834200D1DE
:102290003EE15A461268013200D155E14A46D31A4E
:1022A00059185346196007234A46134000D123E1C9
:1022B000082189464A49D21A9144CB1A019A38001A
:1022C0004A441105090D5B1A19009B4600F03CFCBD
:1022D000431C00D134E14B46C01A01235844184333
:1022E00053461B685B441900534619604B46B36064
:1022F0005860B44212D043460F2B00D81CE107228D
:1023000060680C3B9343063A024005201A43626022
:10231000E218506090600F2B00D933E1314B1A68FE
:10232000914200D919600323B46862689A432E4B26
:102330001868814200D89AE0196098E001222900CB
:1023400013431143651961603800B5606B6000F09C
:1023500021FA20000830B7E64046F5E6DC68023096
:10236000A34200D1F0E69DE6142874D9542800D980
:10237000AFE06E239846280B80446F30C100C4E65E
:10238000012360191D43656070613061C260826025
:102390001A0053460A4342603800E15000F0FAF94F
:1023A0002000083090E62B00E808083372E6082386
:1023B0009B46073BDC449B46DA4443465246134265
:1023C00000D0FAE66DE0C0469C050020FF01000049
:1023D000A4090020040A00200F100000D4090020E6
:1023E00008100000FC090020000A00200122E31868
:1023F000596838000A435A60E368A268D3609A605B
:1024000000F0C8F9200008305EE65A0A042A39D9DB
:10241000142A74D85B23984690445C32D200082377
:102420005B429C46B21894446346996803239946DC
:102430008C4559D04B464A689A43524502D989681F
:102440008C45F7D1CB6872689C466346A160E36017
:102450009C60CC609DE65B23984680445C30C10064
:1024600053E6B44274D00323B46862689A43531BA2
:10247000954202D80F2B00DD60E7380000F08AF9A2
:10248000002021E69A093823984690443932D20038
:10249000C5E74B461A68083B013891469A4200D07E
:1024A00087E043460342F4D173688B43736049006D
:1024B000994200D9BBE6002904D1B8E6042294462B
:1024C0004900E2440B42F9D0504671E610330193C3
:1024D000C6E6AA235B00984224D8DD3B9846E80B69
:1024E00080447830C10010E6434601229B109A4098
:1024F00073681A437260A8E780235B01DEE6542A02
:102500002FD81A0B6E23984690446F32D20086E77C
:102510001A0500D0BDE60120019BB2684344034385
:102520005360FBE6244B984226D87C239846A80C9F
:1025300080447D30C100E8E501234A4653609CE7B2
:10254000002301209B46CBE65B464A461A60AAE67A
:102550001A4A0199924612689446524661441160A3
:1025600097E6AA2149008A4214D8DA0B77239846C5
:1025700090447832D20052E7FE217E2389007F20EA
:102580009846C2E5210038000831FFF75BFA534650
:102590001968C3E608498A4206D89A0C7C239846F3
:1025A00090447D32D2003AE7FE227E239200984684
:1025B00035E773687BE7C04654050000D409002066
:1025C00082B000290AD0002A0BD0002B0BD0137840
:1025D0000B601078431E984102B0704701A9002A91
:1025E000F3D10020F8E702204042F5E770B5CCB205
:1025F000830734D0531E002A1BD00278A24219D080
:10260000032504E0013B14D30278A24212D001302A
:102610002842F7D1032B0ED8002B0AD00278A24211
:1026200008D0C31802E00278A24203D001308342EE
:10263000F9D1002070BDFF220D062D0C1140294359
:102640000D04084E0D43026807496A405118914332
:102650003142E3D1043B0430032BF4D8DCE7130010
:10266000D8E7C04680808080FFFEFEFEF0B50F2ACE
:1026700037D90D0005430C000300AD0735D1150017
:10268000103D2D092E013618103627681F60676827
:102690005F60A7689F60E7681034DF601033B34263
:1026A000F3D10F2401352D01491914404519032C8C
:1026B0001DD90023CE58EE500433E61A032EF9D864
:1026C0000323043CA4080134A4001A402D1909195D
:1026D000002A05D00023CC5CEC5401339342FAD19C
:1026E000F0BD0500002AF5D1FAE70500F2E7220067
:1026F000F8E7C046F0B588420AD98B18984207D24D
:10270000531E002A03D0CA5CC254013BFBD2F0BD69
:102710000F2A09D80500002AF9D00023CC5CEC541C
:1027200001339342FAD1F2E70D0005430C00030098
:10273000AD0729D11500103D2D092F013F18103785
:1027400026681E6066685E60A6689E60E668103453
:10275000DE601033BB42F3D10F2401352D0149193E
:1027600014404519032C11D90023CE58EE500433E0
:10277000E61A032EF9D80323043CA4080134A4006C
:102780002D1909191A40C6E70500C6E72200C2E75D
:102790007047C0467047C046F0B5DE4657464546CE
:1027A0004E46E0B5934685B007000D1E00D1A9E066
:1027B0002E00083EFFF7ECFF736803221C009443D1
:1027C0005A460B32B146162A43D81022924600923E
:1027D000D34543D8009A31198846944276DAD44AD0
:1027E0009168414500D1B6E042465068012102009F
:1027F0008A439446C444624652680A4200D186E045
:10280000194230D059463800FFF730FC8046002886
:102810001BD0012372689A43B3180200083A93420E
:1028200000D125E1221F242A00D931E129680300C3
:10283000132A00D912E12A00196051685960926880
:102840009A6029003800FFF7FDF83800FFF7A2FF73
:1028500050E007218A4392460092B9D50C233B6091
:102860000023984646E03368F31A01935B680293AD
:102870000323029A9A431300009AE11802919142AD
:10288000C0DB0198844606008268C3686144D36057
:102890009A60221F08368846242A00D9EFE029686A
:1028A0003300132A09D981606B68C3601B2A00D9E1
:1028B00004E110300300A968083519606A68029CB9
:1028C0005A60AA6835009A60019B994653464A4669
:1028D000E01A012352681A400F282AD84946224399
:1028E0004A60424652681343424653603800FFF73D
:1028F00051FFA846404605B03CBC90469946A246CA
:10290000AB46F0BD1100FFF7B1FB8046F2E70322B2
:1029100090439446009A02902018904269DB434607
:102920004246B046DB6892688044D36004009A60F7
:10293000CCE7544622434C464946626042465144E5
:1029400018434860526808311343424638005360C8
:10295000FFF778F8CAE703225046496810309143E0
:1029600009199446814200DB96E0DB0700D549E770
:1029700062463368F31A01935B689343CA18029264
:10298000904200DD78E701988268C3688446D3608E
:102990009A60082262449046221F242A00D9B7E098
:1029A00029684346132A09D981606B68C3601B2AD2
:1029B00000D9B2E00300A9681033083519606A68CD
:1029C0005A60AA689A600198594B020052449A6072
:1029D00011005246029B9A1A01231A434A60416829
:1029E00000910B4051460B4343603800FFF7D2FE85
:1029F00080E7194200D005E762463368F31A019375
:102A00005B6803939343029AD1180A1900990292C2
:102A10008A4200DA30E743464246DB689268019812
:102A2000D3609A608268C3680600D3609A60029B94
:102A300084469846221F0836E044242A1FD8296875
:102A40003300132A00D838E781606B68C3601B2A03
:102A500034D80300A968103308352EE7016069688F
:102A600041601B2A35D82A0008330832A968E3E6FA
:102A70000322B0465B689343E418A04426E729008C
:102A80003000FFF737FE019B3500029C99461DE799
:102A90002900FFF72FFED4E65346254AF31893602A
:102AA00052460124891A21435960736838001C403A
:102AB00014437460FFF76EFEA8461BE7A968019BEC
:102AC0001961E9685961242A0ED029691833103533
:102AD000F3E6A9688160E968C160242A0ED02A0063
:102AE000103310322969A7E62B69019A936113000C
:102AF00069692033D161A9691835DEE62A690100C8
:102B000002612A006869183248611833A96993E69E
:102B100029004046FFF7EEFD55E7A968019B1961C2
:102B2000E9685961242A05D029691833103545E729
:102B30009C0500202B69019A936113006969203379
:102B4000D161A969183539E7002370B5064C050035
:102B50000800236000F038FB431C00D070BD2368E0
:102B6000002BFBD02B60F9E70C0A002070B50C009D
:102B70000E25495F00F0C2F9002803DB236D1B1806
:102B8000236570BDA389024A1340A381F9E7C046BB
:102B9000FFEFFFFFF8B516001F000C228B5E0C0044
:102BA00005000E22895EDA0507D50022022300F017
:102BB00091F90C22A35E0E22A15E044A2800134064
:102BC000A38132003B0000F0EFF8F8BDFFEFFFFFFC
:102BD00070B50C000E25495F00F07CF9431C06D04F
:102BE0008023A2895B011343A381206570BDA38963
:102BF000014A1340A381F9E7FFEFFFFF10B50E2351
:102C0000C95E00F0E5F810BD10B5040083070AD0D6
:102C10000378002B23D0032202E00378002B1CD082
:102C200001301042F9D102680E4B0F49D31893437B
:102C30000B420FD1043002680A4BD31893430B4266
:102C400008D104300268074BD31893430B42F1D0EC
:102C500000E001300378002BFBD1001B10BD0020E9
:102C6000FCE7C046FFFEFEFE80808080F8B50600CF
:102C70000D001400002802D0836B002B4BD0A369F9
:102C8000A3600C23E25E91B20B071FD52369002BD2
:102C90001CD0FF20EFB2054080208001014226D0E9
:102CA00022686169D31A99422CDD0133A168013988
:102CB000A160511C2160177062699A422ED0A389CD
:102CC000DB0701D50A2D29D02800F8BD21003000EE
:102CD000FEF768FB002827D1FF20EFB205408020D7
:102CE0000C23E25E800191B223690142D8D10243F4
:102CF000616EA2810E4A0A40626661692268D31A37
:102D00009942D2DC21003000FEF754FD00280BD19F
:102D100022680123CAE7FEF7DFFDB0E7210030009B
:102D2000FEF748FD0028CFD001256D42CCE7C04614
:102D3000FFDFFFFF70B51D00124B84B01B6804005D
:102D40005B6B00290CD0002B08D0E0201E582B0014
:102D50002000B047431C0ED004B070BD0A4BF4E70E
:102D6000002B0DD0E02201A99E5820002B0000224C
:102D7000B047431CF0D100232B608A332360EBE77C
:102D8000014BEFE70000002030040020002904D0B0
:102D9000FF2A04D801200A7070470020FCE78A232C
:102DA000036001204042F7E770B5050008001100FC
:102DB0000022064C22601A00FDF7DCF9431C00D00B
:102DC00070BD2368002BFBD02B60F9E70C0A0020B4
:102DD000002370B5064C05000800236000F0CCF914
:102DE000431C00D070BD2368002BFBD02B60F9E79B
:102DF0000C0A002070B505000C1E08D0002802D077
:102E0000836B002B31D00C22A35E002B02D1002655
:102E1000300070BD21002800FEF724FCE36A0600A4
:102E2000002B04D0E16928009847002824DBA389FF
:102E30001B0624D4216B002908D02300403399427B
:102E400002D02800FEF7FEFD00232363616C0029F9
:102E500004D02800FEF7F6FD00236364FEF744FD6E
:102E60000023A381FEF742FDD2E7FEF735FD0C22D9
:102E7000A35E002BCBD0CDE701267642D7E72169B0
:102E80002800FEF7DFFDD5E7002370B5074C0500ED
:102E900008001100236000F077F9431C00D070BDDA
:102EA0002368002BFBD02B60F9E7C0460C0A0020FA
:102EB000002370B5064C05000800236000F06CF993
:102EC000431C00D070BD2368002BFBD02B60F9E7BA
:102ED0000C0A002070B50500080011000022064C05
:102EE00022601A0000F060F9431C00D070BD236816
:102EF000002BFBD02B60F9E70C0A002070B5050011
:102F0000080011000022064C22601A0000F054F95B
:102F1000431C00D070BD2368002BFBD02B60F9E769
:102F20000C0A0020002941D010B4041C4C40A446D7
:102F300001230022002900D54942002800D5404243
:102F400088422CD301242407A14204D2814202D218
:102F500009011B01F8E7E400A14204D2814202D238
:102F600049005B00F8E7884201D3401A1A434C0835
:102F7000A04202D3001B5C0822438C08A04202D36B
:102F8000001B9C082243CC08A04202D3001BDC0893
:102F90002243002803D01B0901D00909E3E7101CD4
:102FA0006446002C00D5404210BC704701B500209B
:102FB00000F00CF802BDC0460029F7D003B5FFF7BA
:102FC000B3FF0EBC4243891A1847C0467047C0463B
:102FD000002B11D1002A0FD1002900D1002802D0E6
:102FE0000021C943081C07B4024802A140180290FE
:102FF00003BDC046D9FFFFFF03B4684601B5029880
:1030000000F006F8019B9E4602B00CBC7047C0461B
:10301000F0B5060085B00F0015001C008B4265D886
:1030200001D1824262D82100280000F07BF83900EB
:103030000090300000F076F8009B21001B1A1A0067
:103040002800039300F062F800900191019BBB42BD
:1030500046D802D1009BB34242D8009B019C039A00
:1030600001200021F61AA74100F050F8039B002B25
:103070002FD0019B009ADB0754081C43019B5D087D
:10308000039B9C46BD422ED801D1B4422BD83200BE
:103090003B00121BAB41012692185B410027B6187A
:1030A0005F4101235B429C446346002BEAD18019B7
:1030B0007941039A04000D003000390000F01AF83D
:1030C000039A06000F0000F021F8241A8D41200019
:1030D00029000A9B002B01D01E605F6005B0F0BD87
:1030E00000200021C2E7B6197F41DAE70020002165
:1030F000EFE70000D0400B1CD1409C46203AD34063
:103100001843524263469340184370479140031C52
:1031100090409C46203A9340194352426346D34024
:103120001943704710B5002903D100F007F820308B
:1031300002E0081C00F002F810BDC0461C2101236B
:103140001B04984201D3000C10391B0A984201D38A
:10315000000A08391B09984201D30009043902A268
:10316000105C40187047C0460403020201010101CF
:10317000000000000000000058220120014B4042E6
:103180001A6070470C0A002058220120014B40426F
:103190001A6070470C0A00205822024B00201A6067
:1031A0007047C0460C0A002058220120014B4042C3
:1031B0001A6070470C0A002058220120014B40423F
:1031C0001A6070470C0A0020044A1368002B00D1D3
:1031D000034B1818106018007047C046080A0020FA
:1031E000100A0020FEE7C046F8B5C046F8BC08BC8F
:1031F0009E467047F8B5C046F8BC08BC9E4670476E
:103200002564202A202564203D2025640A0D000025
:1032100008000020800C0000F20B0000F20B000000
:103220006E0C0000F20B0000F20B0000F20B00002D
:10323000F20B0000F20B0000F20B0000560C000035
:10324000760C0000F20B00004E0C0000180C000081
:10325000F20B0000100C0000C80B0000C80B0000AF
:10326000C80B0000C80B0000C80B0000C80B000012
:10327000C80B0000C80B0000C80B0000F20B0000D8
:10328000F20B0000F20B0000F20B0000F20B00004A
:10329000F20B0000F20B0000F20B0000F20B00003A
:1032A000F20B0000960E0000F20B0000F20B000083
:1032B000F20B0000F20B0000F20B0000F20B00001A
:1032C000F20B0000F20B0000F20B0000F20B00000A
:1032D00004090000F20B0000F20B0000F20B0000EA
:1032E000F20B0000F20B00006A080000F20B000075
:1032F000F20B0000860D0000F20B0000F20B000044
:10330000F20B0000F20B0000F20B0000F20B0000C9
:10331000F20B0000F20B0000F20B0000F20B0000B9
:10332000680E0000080E0000F20B0000F20B000017
:10333000F20B00008E0E0000080E0000F20B0000E1
:10334000F20B0000AC0C0000F20B0000220D00009C
:1033500008090000020D0000FA0C0000F20B00004A
:10336000BA0C0000F20B00006E080000F20B000027
:10337000F20B0000CE0D00003031323334353637D9
:103380003839414243444546000000003031323371
:103390003435363738396162636465660000000091
:1033A000286E756C6C290000202020202020202011
:1033B000202020202020202030303030303030308D
:1033C000303030303030303043000000504F5349FF
:1033D000580000002E000000002020202020202087
:1033E00020202828282828202020202020202020B5
:1033F00020202020202020202088101010101010C5
:103400001010101010101010100404040404040410
:1034100004040410101010101010414141414141AA
:10342000010101010101010101010101010101018C
:10343000010101011010101010104242424242429C
:10344000020202020202020202020202020202025C
:103450000202020210101010200000000000000004
:10346000000000000000000000000000000000005C
:10347000000000000000000000000000000000004C
:10348000000000000000000000000000000000003C
:10349000000000000000000000000000000000002C
:1034A000000000000000000000000000000000001C
:1034B000000000000000000000000000000000000C
:1034C00000000000000000000000000000000000FC
:1034D00000000000000000000000000000000000EC
:0834E00028CCFF7F0100000071
:1034E800080000200000000000000000F402002096
:1034F8005C030020C403002000000000000000005E
:1035080000000000000000000000000000000000B3
:1035180000000000000000000000000000000000A3
:103528000000000000000000000000000000000093
:103538000000000000000000000000000000000083
:103548000000000000000000000000000000000073
:103558000000000000000000000000000000000063
:103568000000000000000000000000000000000053
:103578000000000000000000000000000000000043
:103588000000000000000000000000000000000033
:1035980001000000000000000E33CDAB34126DE6D0
:1035A800ECDE05000B000000000000000000000039
:1035B8000000000000000000000000000000000003
:1035C80000000000000000000000000000000000F3
:1035D80000000000000000000000000000000000E3
:1035E80000000000000000000000000000000000D3
:10391800430000000000000000000000000000005C
:10392800000000000000000000000000000000008F
:10393800430000000000000000000000000000003C
:10394800000000000000000000000000000000006F
:10395800430000000000000000000000000000001C
:10396800000000000000000000000000000000004F
:1039780043000000000000000000000000000000FC
:10398800000000000000000000000000000000002F
:1039980043000000000000000000000000000000DC
:1039A800000000000000000000000000000000000F
:1039B80043000000000000000000000000000000BC
:1039C80000000000000000000000000000000000EF
:1039D800430000000000000000000000000000009C
:1039E80000000000000000000000000000000000CF
:1039F8008D2D0000C125000000000000D833000014
:103A0800D433000088330000883300008833000076
:103A180088330000883300008833000088330000B2
:103A28008833000088330000FFFFFFFFFFFFFFFF20
:103A3800FFFFFFFFFFFF000001004153434949001A
:103A4800000000000000000000000000000000006E
:103A580000000000000000000000415343494900F5
:103A6800000000000000000000000000000000004E
:103A7800000000000000000000000000000000003E
:103A8800000000009C0500209C050020A4050020E3
:103A9800A4050020AC050020AC050020B4050020DA
:103AA800B4050020BC050020BC050020C40500208A
:103AB800C4050020CC050020CC050020D40500203A
:103AC800D4050020DC050020DC050020E4050020EA
:103AD800E4050020EC050020EC050020F40500209A
:103AE800F4050020FC050020FC0500200406002049
:103AF800040600200C0600200C06002014060020F6
:103B0800140600201C0600201C06002024060020A5
:103B1800240600202C0600202C0600203406002055
:103B2800340600203C0600203C0600204406002005
:103B3800440600204C0600204C06002054060020B5
:103B4800540600205C0600205C0600206406002065
:103B5800640600206C0600206C0600207406002015
:103B6800740600207C0600207C06002084060020C5
:103B7800840600208C0600208C0600209406002075
:103B8800940600209C0600209C060020A406002025
:103B9800A4060020AC060020AC060020B4060020D5
:103BA800B4060020BC060020BC060020C406002085
:103BB800C4060020CC060020CC060020D406002035
:103BC800D4060020DC060020DC060020E4060020E5
:103BD800E4060020EC060020EC060020F406002095
:103BE800F4060020FC060020FC0600200407002044
:103BF800040700200C0700200C07002014070020F1
:103C0800140700201C0700201C07002024070020A0
:103C1800240700202C0700202C0700203407002050
:103C2800340700203C0700203C0700204407002000
:103C3800440700204C0700204C07002054070020B0
:103C4800540700205C0700205C0700206407002060
:103C5800640700206C0700206C0700207407002010
:103C6800740700207C0700207C07002084070020C0
:103C7800840700208C0700208C0700209407002070
:103C8800940700209C0700209C070020A407002020
:103C9800A4070020AC070020AC070020B4070020D0
:103CA800B4070020BC070020BC070020C407002080
:103CB800C4070020CC070020CC070020D407002030
:103CC800D4070020DC070020DC070020E4070020E0
:103CD800E4070020EC070020EC070020F407002090
:103CE800F4070020FC070020FC070020040800203F
:103CF800040800200C0800200C08002014080020EC
:103D0800140800201C0800201C080020240800209B
:103D1800240800202C0800202C080020340800204B
:103D2800340800203C0800203C08002044080020FB
:103D3800440800204C0800204C08002054080020AB
:103D4800540800205C0800205C080020640800205B
:103D5800640800206C0800206C080020740800200B
:103D6800740800207C0800207C08002084080020BB
:103D7800840800208C0800208C080020940800206B
:103D8800940800209C0800209C080020A40800201B
:103D9800A4080020AC080020AC080020B4080020CB
:103DA800B4080020BC080020BC080020C40800207B
:103DB800C4080020CC080020CC080020D40800202B
:103DC800D4080020DC080020DC080020E4080020DB
:103DD800E4080020EC080020EC080020F40800208B
:103DE800F4080020FC080020FC080020040900203A
:103DF800040900200C0900200C09002014090020E7
:103E0800140900201C0900201C0900202409002096
:103E1800240900202C0900202C0900203409002046
:103E2800340900203C0900203C09002044090020F6
:103E3800440900204C0900204C09002054090020A6
:103E4800540900205C0900205C0900206409002056
:103E5800640900206C0900206C0900207409002006
:103E6800740900207C0900207C09002084090020B6
:103E7800840900208C0900208C0900209409002066
:103E880094090020FFFFFFFF000002004D1500000D
:083E9800E9000000C100000078
:0400000300000529CB
:00000001FF
