:100000000040002061050000A1050000A3050000DC
:1000100000000000000000000000000000000000E0
:10002000000000000000000000000000A505000026
:100030000000000000000000A7050000A905000066
:10004000AB050000AB050000AB050000AB050000F0
:10005000AB05000000000000AB050000AB05000090
:10006000AB050000AB050000AB050000AB050000D0
:10007000AB050000AB050000AB050000AB050000C0
:10008000AB050000AB050000AB050000AB050000B0
:10009000AB050000AB050000AB050000AB050000A0
:1000A000AB050000AB0500000000000000000000F0
:1000B0000000000000000000000000000000000040
:1000C00008B5054B054803331B1A062B03D9044B0F
:1000D000002B00D0984708BD3804002038040020C9
:1000E000000000000648074908B5091A8910CB0F1F
:1000F0005918491003D0044B002B00D0984708BD75
:1001000038040020380400200000000010B5074C1F
:100110002378002B09D1FFF7D3FF054B002B02D02A
:10012000044800E000BF0123237010BD3804002004
:1001300000000000FC08000008B5094B002B03D0AC
:100140000848094900E000BF08480368002B02D1B5
:10015000FFF7C8FF08BD064B002BF9D09847F7E71B
:1001600000000000FC0800003C04002034040020D3
:1001700000000000144B002B00D1124B9D46402282
:1001800092029A1A924600218B460F461148124A53
:10019000121A00F061FA0D4B002B00D098470C4B5F
:1001A000002B00D098470020002104000D000B48D0
:1001B00000F0FCF900F02CFA2000290000F010F803
:1001C00000F0FCF9000008000040002000000000E2
:1001D000000000003804002054040020DD05000069
:1001E00080B582B000AF04237B6015E0A023DA0560
:1001F00001217B6899400B1C191CA323DB00D15003
:10020000A023DB0501217A6891400A1C111C5F4A7A
:1002100099507B6801337B607B680F2BE6DD5C497E
:100220005B4AA223DB00D35801221A43A223DB003E
:10023000CA505749564AA223DB00D358882252019C
:100240001A43A223DB00CA505149514AA223DB00C2
:10025000D358802292021A43A223DB00CA504C4991
:100260004B4A4C4BD358032213434A4A8B504849BC
:10027000474A484BD358D02212011343454A8B506A
:100280004349434A434BD358C02292021343414A45
:100290008B503F493E4A3F4BD3583E4A8B503C49D6
:1002A0003B4AA323DB00D35803221A43A323DB00DA
:1002B000CA503749364AA323DB00D358E022120143
:1002C0001A43A323DB00CA503149314AA323DB0080
:1002D000D358C02292021A43A323DB00CA502C49F0
:1002E0002B4AA323DB00D258A323DB00CA502849A2
:1002F000274A294BD35803221343274A8B502449BA
:10030000234A254BD358F02212011343224A8B5023
:100310001F491F4A204BD358C022920213431E4A42
:100320008B501B491A4A1C4BD3581B4A8B501B49F4
:100330001A4A1B4BD35807221343194A8B50174AAA
:10034000A223DB001749D150144A124B1649D15051
:10035000124AA323DB001349D150104A0E4B134914
:10036000D1500E4AA423DB000E49D1500B4A104B4A
:100370001049D15000233B600F4B3B603B68013B71
:100380003B603B68002BF9D1F6E7C0460C05000046
:1003900000600040140500001C05000000F0014052
:1003A0000405000000610040046000400860004057
:1003B000240500000C600040400D030080B500AF34
:1003C00000F034F8031E06D0124B134A1A60134B88
:1003D000802212021A6000F069F8031E05D0802303
:1003E000DA05C123DB000121D15000F085F8031E9E
:1003F0000ED00B4B1B68012B07D0094B094A1A6022
:10040000C046074B1B68012BFBD1074BC0221A606B
:10041000BD4680BD04050040DFFF07C0186C0040EA
:1004200000EC06407593000014EC064080B500AF68
:100430001A4B1B68FF221340012B2AD1184B1B6853
:100440000F22134025D1174B1B68F022134006D111
:10045000154B1B68F022134001D101231AE0114B08
:100460001B68F0221340102B06D10F4B1B68F022A3
:10047000134001D101230DE00A4B1B68F022134009
:10048000302B06D1084B1B68F022134001D1012309
:1004900000E00023181CBD4680BDC046E00F00F000
:1004A000E40F00F0E80F00F0EC0F00F080B500AFB3
:1004B0000D4B1B68FF221340012B11D10B4B1B6806
:1004C0000F2213400CD10A4B1B68F0221340402B23
:1004D00006D1084B1B68F022134001D1012300E034
:1004E0000023181CBD4680BDE00F00F0E40F00F0B3
:1004F000E80F00F0EC0F00F080B500AF144B1B6864
:10050000FF221340012B1ED1124B1B680F221340F8
:1005100019D1114B1B68F0221340A02B06D10F4BB1
:100520001B68F022134001D101230DE00A4B1B6828
:10053000F0221340D02B06D1084B1B68F022134049
:1005400001D1012300E00023181CBD4680BDC04638
:10055000E00F00F0E40F00F0E80F00F0EC0F00F007
:1005600003210A4802680A430260094802680A43F4
:1005700002600849084A094B9B1A03DD043BC8582E
:10058000D050FBDCFFF71AFFFFF7F4FD2405004015
:100590005405004008090000000000203804002035
:1005A000FEE7FEE7FEE7FEE7FEE7FEE708B5011C13
:1005B00000220020002300F095F808BD10B50021AE
:1005C000041C00F005F9044B1868C36B002B00D025
:1005D0009847201C00F080F9F808000038B5094B56
:1005E000094CE41AA41009D0084AA518AD00ED186A
:1005F0002B68013C9847043D002CF9D100F074F9B8
:1006000038BDC0463004002034040020FFFFFF3F07
:1006100070B50D4E0D4D0024AD1BAD1005D0A300DF
:10062000F35801349847A542F9D100F057F9084E24
:10063000084D0024AD1BAD1005D0A300F3580134C4
:100640009847A542F9D170BD280400202804002055
:10065000280400203004002070B583073FD0541ECA
:10066000002A3BD0CEB2031C032503E0621E002CFF
:1006700034D0141C01335A1E16702B42F6D1032CB1
:1006800024D9FF250D402A0215432A0415430F2CB7
:1006900011D9261C103E3609013636011A1C9B1949
:1006A000156055609560D56010329342F8D10F22E5
:1006B0001440032C0AD9261FB6080136B6001A1CAE
:1006C0009B1920C29342FCD103221440002C05D078
:1006D000C9B21C1919700133A342FBD170BD141C9F
:1006E000031CCCE7F8B544465F4656464D469B464C
:1006F0002F4BF0B41C68A4235B00051CE0580E1CB3
:10070000904600284BD043681F2B0DDC5C1C002D4D
:1007100021D102339B0044601E5000203CBC904617
:100720009946A246AB46F8BD224B002B3CD0C820D0
:10073000400000E000BF002836D0A4220023520071
:10074000A15843600160A05040328350043283506E
:100750000124002DDDD09A00914681444246882133
:100760004F467A50C4225200904680444246873910
:10077000994012688A460A4394464246614611608F
:10078000842249465F4652008F50022DC1D1021C7F
:1007900055468D32FF3211680D431560B9E7201CB4
:1007A0004D30FF30E050AEE701204042B6E7C04692
:1007B000F80800000000000008B5034B002B02D031
:1007C0000248FFF7F3FE08BD00000000DD05000051
:1007D000F0B556465F464D464446F0B40E1C3C4BC1
:1007E00087B01B68019003934933FF330493A4221D
:1007F000039B52009F58002F4CD0049B9846002327
:100800009B46C4235B009C46BC4463460293C623BC
:100810005B009A467C68BA44A5007D19013C08D566
:1008200026E06B1DFF331B68B34204D0043D013C3E
:100830001ED3002EF5D17B686A68013BA3423AD0F3
:100840005B466B60002AF1D07B68029999460123D0
:10085000A34009680591194223D190477B684B4515
:10086000C5D143461B68BB42C1D1043D013CE0D227
:10087000184B002B0ED07B68002B23D13B68002B3C
:1008800024D04246381C136000E000BF43461F6876
:10089000002FB6D107B03CBC90469946A246AB4665
:1008A000F0BD51460968194207D12B1C84331968E1
:1008B00001989047D2E77C60C4E72B1C843318680A
:1008C0009047CBE73B68B8461F1CE1E70023FAE7F7
:1008D000F808000000000000FEE7C046F8B5C0467A
:1008E000F8BC08BC9E467047F8B5C046F8BC08BCCA
:1008F0009E467047430000000000002000000000FA
:0809000074F8FF7F0100000004
:1009080000000000EC02002054030020BC0300207B
:1009180000000000000000000000000000000000CF
:1009280000000000000000000000000000000000BF
:1009380000000000F40800000000000000000000B3
:10094800000000000000000000000000000000009F
:10095800000000000000000000000000000000008F
:10096800000000000000000000000000000000007F
:10097800000000000000000000000000000000006F
:10098800000000000000000000000000000000005F
:10099800000000000000000000000000000000004F
:1009A800000000000000000001000000000000003E
:1009B8000E33CDAB34126DE6ECDE05000B00000003
:1009C800000000000000000000000000000000001F
:1009D800000000000000000000000000000000000F
:1009E80000000000000000000000000000000000FF
:1009F80000000000000000000000000000000000EF
:100D28000000000000000000B907000039010000C1
:080D38000D01000000000000A5
:040000030000056193
:00000001FF
